:020000040000FA
:100000000C9462000C948A000C948A000C948A0070
:100010000C948A000C948A000C948A000C948A0038
:100020000C948A000C948A000C948A000C948A0028
:100030000C948A000C948A000C948A000C948A0018
:100040000C94E3040C948A000C9453050C942D0535
:100050000C948A000C948A000C948A000C948A00F8
:100060000C948A000C948A000000000024002700F1
:100070002A0000000000250028002B0000000008D6
:10008000000201000003040700000000000000005F
:1000900000000000230026002900040404040404D6
:1000A0000404020202020202030303030303010227
:1000B00004081020408001020408102001020408F6
:1000C0001020850511241FBECFEFD8E0DEBFCDBFC5
:1000D00011E0A0E0B1E0E2E9F3E102C005900D9289
:1000E000A832B107D9F721E0A8E2B1E001C01D9222
:1000F000A13EB207E1F710E0C2E6D0E004C02197CC
:10010000FE010E94C109C136D107C9F70E94D2057C
:100110000C94C7090C940000CF92DF92EF92FF92EB
:10012000CF93DF93B091D501A0E08111AB2F8091E7
:10013000D60190E0880F991FAC0140575F4FC090E7
:10014000DB01D090DC01E090DD01F090DE0130E0D9
:1001500020E0FA01C591D491E881B90190E080E0F6
:10016000EB23EA130AC02F5F3F4F6C157D058E0508
:100170009F0578F36FEF7FEFCB01DF91CF91FF9079
:10018000EF90DF90CF900895CF93DF9390E0FC0144
:10019000E255FF4F249186569F4FFC01849188239E
:1001A000D1F090E0880F991FFC01E859FF4FA5910D
:1001B000B491FC01EE58FF4FC591D491623071F4B7
:1001C0009FB7F8943C91822F809583238C93E8818C
:1001D0002E2B28839FBFDF91CF9108958FB7F8947E
:1001E000EC912E2B2C938FBFF6CF3FB7F8948091D4
:1001F000290190912A01A0912B01B0912C0126B5E3
:10020000A89B05C02F3F19F00196A11DB11D3FBF4E
:10021000BA2FA92F982F8827BC01CD01620F711D1D
:10022000811D911D42E0660F771F881F991F4A9517
:10023000D1F708958F929F92AF92BF92CF92DF92A3
:10024000EF92FF924B015C010E94F5006B017C0173
:100250000E94F5006C197D098E099F09683E734064
:1002600081059105A8F321E0821A9108A108B1083F
:1002700088EEC80E83E0D81EE11CF11C81149104A5
:10028000A104B10429F7FF90EF90DF90CF90BF90C9
:10029000AF909F908F9008958F929F92AF92BF9250
:1002A000EF92FF920F931F93CF93DF93CDB7DEB7FB
:1002B000C054D1400FB6F894DEBF0FBECDBF2FB7EC
:1002C000F89480912D0190912E01A0912F01B09171
:1002D00030012FBF4091D7015091D8016091D901D1
:1002E0007091DA018C019D01041B150B260B370B55
:1002F000B901A801403D574061057105A0F4809106
:10030000DF01C05CDE4F0FB6F894DEBF0FBECDBF7D
:10031000DF91CF911F910F91FF90EF90BF90AF9021
:100320009F908F9008958093D7019093D801A093C8
:10033000D901B093DA011092D2011092D10110923A
:10034000D0011092CF011092CE0162E08091D301D2
:100350000E94C40061E070E080E090E00E941A0119
:1003600061E08091D3010E94C4008091D30190E0AC
:10037000FC01E458FF4F2491FC01E255FF4F3491FA
:10038000FC01E656FF4FE491EE23D9F0222359F009
:10039000233009F44BC008F03EC0213009F44CC0B2
:1003A000223009F44DC0F0E0EE0FFF1FEE58FF4F72
:1003B000A591B4918FB7F894EC9130953E233C937E
:1003C0008FBF8091D4018551823008F046C08BE206
:1003D00091E10197F1F762E08091D3010E94C4009E
:1003E0008091E00190E08230910538F0880F991FEC
:1003F000880F991F05970197F1F7F89480E00E9404
:100400008C006F3F7F4F8F4F9F4F71F51092DF0130
:10041000789480E076CF2730B1F02830D1F02430C6
:1004200009F0C1CF809180008F7D03C08091800052
:100430008F7780938000B7CF84B58F7784BDB3CF9B
:1004400084B58F7DFBCF8091B0008F778093B00013
:10045000AACF8091B0008F7DF9CF64E170E080E099
:1004600090E00E941A01B7CF81E00E948C006F3F9C
:100470007F4F8F4F9F4F51F2CE0101967C015E015D
:100480009FEBA91A9EEFB90A870180E00E948C00B9
:10049000F801608371838283938381E00E948C00E2
:1004A000F8016483758386839783085F1F4FA016C6
:1004B000B10659F7789430E020E0F7018080918010
:1004C000A280B3804481558166817781FFEF8F16CA
:1004D0009F06AF06BF0631F04F3F0FEF5007600792
:1004E000700719F41092DF0194CFF90183E0F595BC
:1004F000E7958A95E1F7E253FE4F8081880F8416D5
:100500009506A606B70618F180832F5F3F4F18E0C7
:10051000E10EF11C2832310581F64091D201209183
:10052000CE018091CF01280F3327331F8091D00156
:10053000280F311D8091D101820F932F911D992792
:100540004817190679F681E08093DF01DACE8160E1
:10055000DBCFAF92BF92CF92DF92EF92FF920F93D9
:100560001F93CF93DF936C017B018B01040F151F49
:10057000EB015E01AE18BF08C017D10759F06991B1
:10058000D601ED91FC910190F081E02DC601099515
:10059000892B79F7C501DF91CF911F910F91FF90C2
:1005A000EF90DF90CF90BF90AF900895FC01538DF6
:1005B000448D252F30E0842F90E0821B930B54173D
:1005C00010F0CF96089501970895FC01918D828DCA
:1005D000981761F0A28DAE0FBF2FB11D5D968C9163
:1005E000928D9F5F9F73928F90E008958FEF9FEFA2
:1005F0000895FC01918D828D981731F0828DE80F5E
:10060000F11D858D90E008958FEF9FEF0895FC0117
:10061000918D228D892F90E0805C9F4F821B9109E4
:100620008F739927089581E391E00E94070321E0E9
:10063000892B09F420E0822F089580E090E0892B37
:1006400029F00E94130381110C9400000895FC010D
:10065000A48DA80FB92FB11DA35ABF4F2C91848D23
:1006600090E001968F739927848FA689B7892C9380
:10067000A089B1898C91837080648C93938D848DD3
:10068000981306C00288F389E02D80818F7D8083D6
:100690000895EF92FF920F931F93CF93DF93EC0196
:1006A00081E0888F9B8D8C8D98131AC0E889F98919
:1006B000808185FF15C09FB7F894EE89FF8960831C
:1006C000E889F98980818370806480839FBF81E09D
:1006D00090E0DF91CF911F910F91FF90EF900895DF
:1006E000F62E0B8D10E00F5F1F4F0F731127E02EBA
:1006F0008C8D8E110CC00FB607FCFACFE889F989F2
:10070000808185FFF5CFCE010E942703F1CFEB8DCD
:10071000EC0FFD2FF11DE35AFF4FF0829FB7F894C5
:100720000B8FEA89FB8980818062CFCFCF93DF93E3
:10073000EC01888D8823B9F0AA89BB89E889F989F9
:100740008C9185FD03C0808186FD0DC00FB607FC2E
:10075000F7CF8C9185FFF2CF808185FFEDCFCE0161
:100760000E942703E9CFDF91CF910895FC0101900A
:100770000020E9F73197AF01481B590BBC0181E319
:1007800091E00C94A9028F929F92AF92BF920F9327
:100790001F93CF93DF93CDB7DEB7A1970FB6F89431
:1007A000DEBF0FBECDBF19A2423008F44AE08E0171
:1007B0000F5D1F4F842E912CB12CA12CA50194010B
:1007C0000E949F09E62FB901CA01EA30F4F4E05D06
:1007D000D801EE938D01232B242B252B79F790E064
:1007E00080E0109719F0CD010E94B603A1960FB6D4
:1007F000F894DEBF0FBECDBFDF91CF911F910F9157
:10080000BF90AF909F908F900895E95CE1CF4F9299
:100810005F926F927F928F929F92AF92BF92CF9290
:10082000DF92EF92FF920F931F93CF936B017C01A6
:10083000742EAC019B010E949A09882399F082E1F1
:1008400091E0CF911F910F91FF90EF90DF90CF90AB
:10085000BF90AF909F908F907F906F905F904F90E0
:100860000C94B60346015701E894B7F82FEF3FEF19
:100870004FE75FE7C501B4010E949A0981110DC0DD
:100880002FEF3FEF4FE75FE7C501B4010E94D007AC
:1008900018161CF486E191E0D4CF2FEF3FEF4FE71D
:1008A0005FE4C701B6010E94280918161CF48AE10A
:1008B00091E0C7CF2FEF3FEF4FE75FECC701B601E5
:1008C0000E94D00787FDF3CF20E030E0A901C701E7
:1008D000B6010E94D00710E000E087FF0AC06DE279
:1008E00081E391E00E9449038C01F7FAF094F7F854
:1008F000F094C0E060E070E080E09FE37C1641F09F
:1009000020E030E040E251E40E94D507CF5FF6CF0F
:10091000A70196010E9464072B013C010E94470831
:100920004B015C014AE00E94C3037C01E00EF11E12
:10093000CC23C1F1C501B4010E9476089B01AC0132
:10094000C301B2010E9463074B015C016EE281E3C7
:1009500091E00E944903E80EF91EC15018F120E011
:1009600030E040E251E4C501B4010E942D092B01A1
:100970003C010E9447084B01B12CA12C4AE0C50163
:10098000B4010E94C303E80EF91EC501B4010E9420
:1009900076089B01AC01C301B2010E9463074B01C1
:1009A0005C01DBCFC701CF911F910F91FF90EF90BA
:1009B000DF90CF90BF90AF909F908F907F906F907F
:1009C0005F904F9008951F920F920FB60F921124CF
:1009D0002F933F938F939F93AF93BF9380912D015C
:1009E00090912E01A0912F01B091300130912801FA
:1009F00023E0230F2D3758F50196A11DB11D20933B
:100A0000280180932D0190932E01A0932F01B09384
:100A100030018091290190912A01A0912B01B09180
:100A20002C010196A11DB11D8093290190932A01EB
:100A3000A0932B01B0932C01BF91AF919F918F9107
:100A40003F912F910F900FBE0F901F90189526E8A1
:100A5000230F0296A11DB11DD2CF1F920F920FB688
:100A60000F9211242F933F934F935F936F937F9334
:100A70008F939F93AF93BF93EF93FF9381E391E0A5
:100A80000E942703FF91EF91BF91AF919F918F91AA
:100A90007F916F915F914F913F912F910F900FBE7A
:100AA0000F901F9018951F920F920FB60F9211245E
:100AB0002F938F939F93EF93FF93E0914101F091D8
:100AC00042018081E0914701F091480182FD1BC005
:100AD000908180914A018F5F8F7320914B01821723
:100AE00041F0E0914A01F0E0EF5CFE4F958F80937A
:100AF0004A01FF91EF919F918F912F910F900FBE1F
:100B00000F901F9018958081F4CFE1E3F1E01382FC
:100B1000128288EE93E0A0E0B0E084839583A68300
:100B2000B78384E091E09183808385EC90E09587A2
:100B3000848784EC90E09787868780EC90E0918BA7
:100B4000808B81EC90E0938B828B82EC90E0958B94
:100B5000848B86EC90E0978B868B118E128E138E91
:100B6000148EAEECB1E082E015968C9315978BE075
:100B700016968C931697E0EBF0E0E4911796EC93C1
:100B80001797ECE9F0E0E4911896EC93189740E899
:100B90005EE360E070E01D964D935D936D937C93F2
:100BA00050970895789484B5826084BD84B581603F
:100BB00084BD85B5826085BD85B5816085BD809128
:100BC0006E00816080936E001092810080918100A0
:100BD0008260809381008091810081608093810098
:100BE000809180008160809380008091B10084605A
:100BF0008093B1008091B00081608093B0008091BB
:100C00007A00846080937A0080917A008260809379
:100C10007A0080917A00816080937A0080917A00D6
:100C2000806880937A001092C100E0914101F091B8
:100C3000420182E08083E0913D01F0913E0110820B
:100C4000E0913F01F09140018FEC808310924901C7
:100C5000E0914501F091460186E08083E0914301F7
:100C6000F0914401808180618083E0914301F091A3
:100C70004401808188608083E0914301F0914401C8
:100C8000808180688083E0914301F09144018081FC
:100C90008F7D808362E08091D3010E94C4002FB7D2
:100CA000F89480912D0190912E01A0912F01B09187
:100CB00030012FBF805D9740A109B1098093D70112
:100CC0009093D801A093D901B093DA0187E3809380
:100CD000E001C0E0D0E00E944C01882349F08091FF
:100CE000D4018B3028F08D3050F085518230C8F11E
:100CF000812C912C20ECA22E2FE7B22E1EC06091E9
:100D0000CF0170E090E080E00E9478082DEC3CEC90
:100D10004CEC5DE30E942D096B017C016091CE01DA
:100D200070E090E080E00E9478089B01AC01C70170
:100D3000B6010E9464074B015C010E944C018823AC
:100D400009F474C08091D4018C3009F488C0D8F4BF
:100D50008B3091F1C12CD12C80ECE82E8FE7F82E4E
:100D600055C06091CE017091CF0176276727762715
:100D700090E080E00E9476082DEC3CEC4CEC5DE3CA
:100D80000E942D09D8CF8551823020F71091D001D3
:100D9000612F70E0762F662766277F778091D101DB
:100DA000682B90E080E00E9476082DEC3CEC4CEC47
:100DB0005DE30E942D096FC06091D00170E090E06A
:100DC00080E00E9476086B017C011091D10117FF31
:100DD0000AC0AC019B0160E070E080E89FEB0E94DC
:100DE00063076B017C011F70612F70E090E080E071
:100DF0000E9478082DEC3CEC4CEC5DE30E942D0940
:100E0000A70196010E9464076B017C01A501940172
:100E1000C501B4010E949A09811108C0A701960179
:100E2000C701B6010E949A098823F1F18EE191E091
:100E30000E94B60382E291E00E94B60360ED77E083
:100E400080E090E00E941A01209709F444CF0E94AC
:100E50001303882309F43FCF0E9400003CCF109178
:100E6000D001612F70E090E080E00E9476086B0175
:100E70007C016091D1016F7070E090E080E00E9491
:100E800078082DEC3CEC4CEC5DE30E942D09A701A9
:100E900096010E9464076B017C0117FFB7CFF7FA38
:100EA000F094F7F8F094B2CF41E0C701B6010E9488
:100EB000070485E291E00E94B60341E0C501B40158
:100EC0000E940704B7CF5058BB27AA270E947B0770
:100ED0000C94EE080E94E00838F00E94E70820F029
:100EE00039F49F3F19F426F40C94DD080EF4E095D4
:100EF000E7FB0C94D708E92F0E94FF0858F3BA17B4
:100F0000620773078407950720F079F4A6F50C941F
:100F100021090EF4E0950B2EBA2FA02D0B01B9017B
:100F200090010C01CA01A0011124FF27591B99F05F
:100F3000593F50F4503E68F11A16F040A22F232F6B
:100F4000342F4427585FF3CF469537952795A795BB
:100F5000F0405395C9F77EF41F16BA0B620B730B62
:100F6000840BBAF09150A1F0FF0FBB1F661F771FD3
:100F7000881FC2F70EC0BA0F621F731F841F48F488
:100F8000879577956795B795F7959E3F08F0B0CF11
:100F90009395880F08F09927EE0F979587950895F8
:100FA0000E94B30808F481E008950E94E9070C94B8
:100FB000EE080E94E70858F00E94E00840F029F48B
:100FC0005F3F29F00C94D70851110C9422090C941E
:100FD000DD080E94FF0868F39923B1F3552391F3CC
:100FE000951B550BBB27AA2762177307840738F098
:100FF0009F5F5F4F220F331F441FAA1FA9F335D0F5
:101000000E2E3AF0E0E832D091505040E695001CA8
:10101000CAF72BD0FE2F29D0660F771F881FBB1F62
:10102000261737074807AB07B0E809F0BB0B802D40
:10103000BF01FF2793585F4F3AF09E3F510578F06C
:101040000C94D7080C9422095F3FE4F3983ED4F344
:10105000869577956795B795F7959F5FC9F7880F40
:10106000911D9695879597F90895E1E0660F771F92
:10107000881FBB1F621773078407BA0720F0621B23
:10108000730B840BBA0BEE1F88F7E09508950E944E
:10109000070988F09F5798F0B92F9927B751B0F0FA
:1010A000E1F0660F771F881F991F1AF0BA95C9F7EC
:1010B00014C0B13091F00E942109B1E008950C9460
:1010C0002109672F782F8827B85F39F0B93FCCF313
:1010D000869577956795B395D9F73EF49095809569
:1010E000709561957F4F8F4F9F4F0895E89409C089
:1010F00097FB3EF490958095709561957F4F8F4F4B
:101100009F4F9923A9F0F92F96E9BB279395F69560
:10111000879577956795B795F111F8CFFAF4BB0FDE
:1011200011F460FF1BC06F5F7F4F8F4F9F4F16C042
:10113000882311F096E911C0772321F09EE8872FCC
:10114000762F05C0662371F096E8862F70E060E088
:101150002AF09A95660F771F881FDAF7880F969501
:10116000879597F90895990F0008550FAA0BE0E8A5
:10117000FEEF16161706E807F907C0F01216130659
:10118000E407F50798F0621B730B840B950B39F499
:101190000A2661F0232B242B252B21F408950A26FF
:1011A00009F4A140A6958FEF811D811D089597F93F
:1011B0009F6780E870E060E008959FEF80EC0895FD
:1011C00000240A9416161706180609060895002426
:1011D0000A9412161306140605060895092E0394A0
:1011E000000C11F4882352F0BB0F40F4BF2B11F414
:1011F00060FF04C06F5F7F4F8F4F9F4F089557FD73
:101200009058440F551F59F05F3F71F04795880F74
:1012100097FB991F61F09F3F79F08795089512160B
:1012200013061406551FF2CF4695F1DF08C01616B7
:1012300017061806991FF1CF869571056105089468
:101240000895E894BB2766277727CB0197F908957F
:101250000E94B30808F48FEF08950E9440090C948F
:10126000EE080E94E00838F00E94E70820F095237D
:1012700011F00C94D7080C94DD0811240C94220969
:101280000E94FF0870F3959FC1F3950F50E0551F22
:10129000629FF001729FBB27F00DB11D639FAA27CB
:1012A000F00DB11DAA1F649F6627B00DA11D661F1A
:1012B000829F2227B00DA11D621F739FB00DA11D3B
:1012C000621F839FA00D611D221F749F3327A00DF5
:1012D000611D231F849F600D211D822F762F6A2F91
:1012E00011249F5750409AF0F1F088234AF0EE0FF6
:1012F000FF1FBB1F661F771F881F91505040A9F723
:101300009E3F510580F00C94D7080C9422095F3F52
:10131000E4F3983ED4F3869577956795B795F7955E
:10132000E7959F5FC1F7FE2B880F911D96958795D6
:1013300097F908950E94B308880B990B0895A1E2CC
:101340001A2EAA1BBB1BFD010DC0AA1FBB1FEE1F3F
:10135000FF1FA217B307E407F50720F0A21BB30B8A
:10136000E40BF50B661F771F881F991F1A9469F706
:1013700060957095809590959B01AC01BD01CF0162
:101380000895EE0FFF1F0590F491E02D0994F89455
:10139000FFCF000000004903A902D602960307030D
:1013A000E502F9026E616E00696E66006F76660096
:0A13B000455252000D0A002C000007
:107E0000112484B714BE81FFF0D085E080938100F7
:107E100082E08093C00088E18093C10086E0809377
:107E2000C20080E18093C4008EE0C9D0259A86E02C
:107E300020E33CEF91E0309385002093840096BBD3
:107E4000B09BFECF1D9AA8958150A9F7CC24DD24C4
:107E500088248394B5E0AB2EA1E19A2EF3E0BF2EE7
:107E6000A2D0813461F49FD0082FAFD0023811F036
:107E7000013811F484E001C083E08DD089C08234E0
:107E800011F484E103C0853419F485E0A6D080C0E4
:107E9000853579F488D0E82EFF2485D0082F10E0AE
:107EA000102F00270E291F29000F111F8ED06801E7
:107EB0006FC0863521F484E090D080E0DECF843638
:107EC00009F040C070D06FD0082F6DD080E0C81688
:107ED00080E7D80618F4F601B7BEE895C0E0D1E017
:107EE00062D089930C17E1F7F0E0CF16F0E7DF06D8
:107EF00018F0F601B7BEE89568D007B600FCFDCFD4
:107F0000A601A0E0B1E02C9130E011968C91119780
:107F100090E0982F8827822B932B1296FA010C0160
:107F200087BEE89511244E5F5F4FF1E0A038BF0790
:107F300051F7F601A7BEE89507B600FCFDCF97BE46
:107F4000E89526C08437B1F42ED02DD0F82E2BD052
:107F50003CD0F601EF2C8F010F5F1F4F84911BD097
:107F6000EA94F801C1F70894C11CD11CFA94CF0C13
:107F7000D11C0EC0853739F428D08EE10CD085E9AC
:107F80000AD08FE07ACF813511F488E018D01DD067
:107F900080E101D065CF982F8091C00085FFFCCF94
:107FA0009093C60008958091C00087FFFCCF809118
:107FB000C00084FD01C0A8958091C6000895E0E648
:107FC000F0E098E1908380830895EDDF803219F02E
:107FD00088E0F5DFFFCF84E1DECF1F93182FE3DFCA
:107FE0001150E9F7F2DF1F91089580E0E8DFEE27F6
:047FF000FF270994CA
:027FFE00040479
:00000001FF
