:020000040000FA
:100000000C9462000C948A000C948A000C948A0070
:100010000C948A000C948A000C948A000C948A0038
:100020000C948A000C948A000C948A000C948A0028
:100030000C948A000C948A000C948A000C948A0018
:100040000C9437030C948A000C94A7030C9481033E
:100050000C948A000C948A000C948A000C948A00F8
:100060000C948A000C948A000000000025002800EF
:100070002B0000000000240027002A0000000000E0
:1000800023002600290004040404040404040202DA
:100090000202020203030303030301020408102007
:1000A0004080010204081020010204081020000012
:1000B0000008000201000003040700000000000027
:1000C0000000050611241FBECFEFD8E0DEBFCDBF74
:1000D00022E0A2E5B1E001C01D92A430B207E1F731
:1000E00011E0A0E0B1E0ECEAF1E102C005900D9270
:1000F000A235B107D9F710E0C2E6D0E004C02197DD
:10010000FE010E94D306C136D107C9F70E94D90368
:100110000C94D4080C940000CF92DF92EF92FF92DF
:100120006B017C0160E079E08DE390E0A70196012E
:100130000E94B10621503109410951095695479550
:1001400037952795E0917301F091740182E08083E7
:10015000211580E13807A8F0E0917301F091740156
:10016000108260E874E88EE190E0A70196010E9499
:10017000B1062150310941095109569547953795E6
:100180002795E0916F01F09170013083E09171014A
:10019000F0917201208310927B01E0917701F09140
:1001A000780186E08083E0917501F091760180818D
:1001B00080618083E0917501F09176018081886093
:1001C0008083E0917501F091760180818068808361
:1001D000E0917501F091760180818F7D8083FF90A1
:1001E000EF90DF90CF9008952FB7F89460915F0162
:1001F0007091600180916101909162012FBF08951B
:10020000AF92BF92CF92DF92EF92FF920F931F9324
:10021000CF93DF936C017B018B01040F151FEB0162
:100220005E01AE18BF08C017D10759F06991D60119
:10023000ED91FC910190F081E02DC6010995892B8B
:1002400079F7C501DF91CF911F910F91FF90EF904A
:10025000DF90CF90BF90AF900895FC01538D448DF7
:10026000252F30E0842F90E0821B930B541710F061
:10027000CF96089501970895FC01918D828D98176E
:1002800061F0A28DAE0FBF2FB11D5D968C91928D46
:100290009F5F9F73928F90E008958FEF9FEF089577
:1002A0000F931F930E94F40060936B0170936C0195
:1002B00080936D0190936E0183E691E00E943C0172
:1002C00097FF1DC00E94F40000916B0110916C011A
:1002D00020916D0130916E01601B710B820B930BAD
:1002E00000916701109168012091690130916A01C4
:1002F0006017710782079307F8F28FEF9FEF1F9146
:100300000F910895FC01918D828D981731F0828DA7
:10031000E80FF11D858D90E008958FEF9FEF089510
:10032000FC01918D228D892F90E0805C9F4F821B74
:1003300091098F739927089583E691E00E949001B7
:1003400021E0892B09F420E0822F089580E090E0DD
:10035000892B29F00E949C0181110C9400000895C2
:10036000FC01A48DA80FB92FB11DA35ABF4F2C912A
:10037000848D90E001968F739927848FA689B78921
:100380002C93A089B1898C91837080648C93938D18
:10039000848D981306C00288F389E02D80818F7DBB
:1003A00080830895EF92FF920F931F93CF93DF9373
:1003B000EC0181E0888F9B8D8C8D98131AC0E889A1
:1003C000F989808185FF15C09FB7F894EE89FF8970
:1003D0006083E889F98980818370806480839FBF0E
:1003E00081E090E0DF91CF911F910F91FF90EF900E
:1003F0000895F62E0B8D10E00F5F1F4F0F7311271E
:10040000E02E8C8D8E110CC00FB607FCFACFE88958
:10041000F989808185FFF5CFCE010E94B001F1CF2F
:10042000EB8DEC0FFD2FF11DE35AFF4FF0829FB7CC
:10043000F8940B8FEA89FB8980818062CFCFCF93BC
:10044000DF93EC01888D8823B9F0AA89BB89E889FC
:10045000F9898C9185FD03C0808186FD0DC00FB6A2
:1004600007FCF7CF8C9185FFF2CF808185FFEDCF20
:10047000CE010E94B001E9CFDF91CF910895FC0138
:1004800001900020E9F73197AF01481B590BBC01DF
:1004900083E691E00C940001FC018081918100973A
:1004A00011F00C9475070895AF92BF92CF92DF922E
:1004B000EF92FF920F931F93CF93DF93DC01CD90C8
:1004C000DC901197C114D10439F01496CD91DC91D0
:1004D0008C017601209761F4DF91CF911F910F91EC
:1004E000FF90EF90DF90CF90BF90AF90089575018F
:1004F0005701BFEFAB1ABB0AF7018081082E000C31
:10050000990B0E946E06892B91F72197CC0DDD1D6A
:100510008881082E000C990B0E946E06892B29F009
:10052000CE15DF0510F02197F3CFAE014F5F5F4F7F
:100530004E195F09D80115965C934E931497CE140B
:10054000DF0420F4B701C6010E94BB08D801ED9179
:10055000FC91119714968D919C91E80FF91F1082D0
:10056000BBCF0F931F93CF93DF93EC0188819981C9
:10057000009759F02A813B812617370730F081E038
:10058000DF91CF911F910F9108958B016F5F7F4F86
:100590000E94FE07009759F0998388831B830A8382
:1005A0002C813D81232B59F7FC011082E8CF80E09C
:1005B000E7CFEF92FF920F931F93CF93DF9300D07B
:1005C000CDB7DEB78C01FC0111821082138212823A
:1005D0001582148270E060E00E94B102F80120816F
:1005E0003181811132C02115310519F0C9010E94F4
:1005F0007507F8011182108215821482138212820B
:100600000E94500197FD29C08A30910531F18983FC
:100610001A82F801E480F580FFEFEF1AFF0AB701B4
:10062000C8010E94B102882359F3F8012081318169
:1006300084819581BE016F5F7F4F820F931F0E945F
:10064000CD08F801F582E482DBCF158214826DE2D9
:1006500071E0C9010E94CD08D3CFC8010F900F905F
:10066000DF91CF911F910F91FF90EF9008951F920E
:100670000F920FB60F9211242F933F938F939F9356
:10068000AF93BF9380915F0190916001A091610150
:10069000B091620130915E0123E0230F2D3758F5B0
:1006A0000196A11DB11D20935E0180935F0190937F
:1006B0006001A0936101B093620180915A01909111
:1006C0005B01A0915C01B0915D010196A11DB11D7E
:1006D00080935A0190935B01A0935C01B0935D01FC
:1006E000BF91AF919F918F913F912F910F900FBE2E
:1006F0000F901F90189526E8230F0296A11DB11D9B
:10070000D2CF1F920F920FB60F9211242F933F93C7
:100710004F935F936F937F938F939F93AF93BF9309
:10072000EF93FF9383E691E00E94B001FF91EF9178
:10073000BF91AF919F918F917F916F915F914F91F9
:100740003F912F910F900FBE0F901F9018951F9201
:100750000F920FB60F9211242F938F939F93EF93C5
:10076000FF93E0917301F09174018081E091790130
:10077000F0917A0182FD1BC0908180917C018F5F96
:100780008F7320917D01821741F0E0917C01F0E0B0
:10079000ED59FE4F958F80937C01FF91EF919F91D2
:1007A0008F912F910F900FBE0F901F901895808101
:1007B000F4CFCF93DF93CDB7DEB7A7970FB6F894FA
:1007C000DEBF0FBECDBF789484B5826084BD84B592
:1007D000816084BD85B5826085BD85B5816085BD3C
:1007E00080916E00816080936E00109281008091F4
:1007F000810082608093810080918100816080937C
:100800008100809180008160809380008091B100A0
:1008100084608093B1008091B00081608093B000CB
:1008200080917A00846080937A0080917A0082605F
:1008300080937A0080917A00816080937A00809121
:100840007A00806880937A001092C1006091000164
:1008500070910101072E000C880B990B0E948C00EF
:10086000ECE9F0E0249158E8252E50E0352EF10116
:1008700084918823C9F090E0880F991FFC01EE58FD
:10088000FF4FA591B491FC01E859FF4F4591549158
:100890003FB7F8949C91822F809598239C93FA01FE
:1008A0009081892380833FBF3AE0432E512C612CF5
:1008B000712C90E8E92E95E2F92EC12C22ECD22E73
:1008C000E0EBF0E08491ECE9F0E09491F101249107
:1008D000222309F46CC1882339F0833071F118F5B3
:1008E000813089F1823099F1E22FF0E0EE0FFF1FA5
:1008F000E458FF4FA591B4918C91982309F457C106
:100900008091580190915901892B51F40E94F40073
:100910006093540170935501809356019093570151
:1009200001E010E09FC08730A9F08830C9F0843022
:10093000D9F6809180008F7D03C0809180008F77F1
:1009400080938000D1CF84B58F7784BDCDCF84B51F
:100950008F7DFBCF8091B0008F778093B000C4CFA4
:100960008091B0008F7DF9CFC397A105B10518F430
:1009700010E000E077C0809153018823C9F380E242
:1009800091E00E943F028BE291E00E943F020E94B0
:10099000F4004B015C010E94F400681979098A098E
:1009A0009B09683E73408105910510F783E691E04D
:1009B0000E9490011816190674F7CE0101960E9444
:1009C000D902CE0101960E9454028D819E81892B0D
:1009D00009F4CEC06EE271E089819A810E94C40858
:1009E0008C01892B09F0C4C0809100019091010114
:1009F0008038954209F0B7C0D0920101C092000141
:100A000083E691E00E941F02E0917501F09176016A
:100A100080818F7E8083E0917501F09176018081E5
:100A2000877F8083E0917501F091760180818F77D7
:100A30008083E0917501F091760180818F7D8083C4
:100A400080917D0180937C01609100017091010192
:100A5000072E000C880B990B0E948C00CE0101968A
:100A60000E944C02109359010093580183E691E0D3
:100A70000E949001181619060CF068C0CE018296EB
:100A80000E94D902CE0182960E94540280915301A5
:100A9000811158C08EA19FA1892B09F453C08AA14E
:100AA0009BA1FC01009721F410925201E2E5F1E0D4
:100AB0002081022E000C330B205331092A303105DE
:100AC00008F040C0009709F458C00E9432067093A5
:100AD00001016093000181E391E00E943F02809058
:100AE000000190900101092C000CAA08BB08B7FE78
:100AF00048C06DE283E691E00E94D20122273327AD
:100B0000A901281939094A095B0919A28E010F5D4B
:100B10001F4FCA01B901A30192010E94B106605D95
:100B2000F80162938F01211531054105510589F7BF
:100B30000115110519F0C8010E943F028BE291E0F6
:100B40000E943F02CE0182960E944C0280E090E01B
:100B5000892B09F4B5CE0E949C01882309F4A9CE03
:100B60000E940000A6CEF0920101E092000148CF61
:100B7000CE0101960E944C020ECF60E070E0CB01E6
:100B8000A6CFA501940119A28E010F5D1F4FCA01C6
:100B9000B901A30192010E94B106605DF801629360
:100BA0008F01211531054105510589F7C1CF80918C
:100BB000580190915901019709F0DACE0E94F40092
:100BC0000091540110915501209156013091570127
:100BD000DC01CB01801B910BA20BB30B883EF3E031
:100BE0009F07A105B10508F4BFCE8091530191E0A4
:100BF000892780935301811105C08AE191E00E9409
:100C00003F02B6CE8DE191E0FACFE3E6F1E0138248
:100C1000128288EE93E0A0E0B0E084839583A683FF
:100C2000B7838CE091E09183808385EC90E0958799
:100C3000848784EC90E09787868780EC90E0918BA6
:100C4000808B81EC90E0938B828B82EC90E0958B93
:100C5000848B86EC90E0978B868B118E128E138E90
:100C6000148E08951F93FC0199278827BC01E894EE
:100C700011911032E9F3193010F01E30C8F31B3215
:100C800051F01D3249F4689406C00E945906610F64
:100C9000711D811D911D119110531A30B0F33EF456
:100CA00090958095709561957F4F8F4F9F4F1F91C5
:100CB0000895592F482F372F262F660F771F881F2B
:100CC000991F660F771F881F991F620F731F841F5C
:100CD000951F660F771F881F991F089591110C9417
:100CE0007706803219F089508550C8F70895992702
:100CF000882708952F923F924F925F926F927F9232
:100D00008F929F92AF92BF92CF92DF92EF92FF921B
:100D10000F931F93CF93DF93CDB7DEB7CA1BDB0BC7
:100D20000FB6F894DEBF0FBECDBF09942A8839886C
:100D300048885F846E847D848C849B84AA84B98473
:100D4000C884DF80EE80FD800C811B81AA81B9817F
:100D5000CE0FD11D0FB6F894DEBF0FBECDBFED0193
:100D60000895A1E21A2EAA1BBB1BFD010DC0AA1FEC
:100D7000BB1FEE1FFF1FA217B307E407F50720F004
:100D8000A21BB30BE40BF50B661F771F881F991F7F
:100D90001A9469F760957095809590959B01AC01C8
:100DA000BD01CF010895EE0FFF1F0590F491E02DD6
:100DB00009940F931F93CF93DF938230910510F422
:100DC00082E090E0E0910202F091030230E020E046
:100DD000B0E0A0E0309799F42115310509F44AC03C
:100DE000281B390B24303105D8F58A819B81611588
:100DF000710589F1FB0193838283FE0111C040815B
:100E000051810281138148175907E0F048175907AB
:100E100099F4109761F012960C93129713961C9305
:100E20003296CF01DF91CF911F910F9108950093DA
:100E3000020210930302F4CF2115310551F042173D
:100E4000530738F0A901DB019A01BD01DF01F80168
:100E5000C1CFEF01F9CF9093030280930202CDCF6F
:100E6000FE01E20FF31F81939193225031093983E0
:100E70002883D7CF2091000230910102232B41F427
:100E8000209104013091050130930102209300026A
:100E900020910201309103012115310541F42DB754
:100EA0003EB74091060150910701241B350BE0919C
:100EB0000002F0910102E217F307A0F42E1B3F0B92
:100EC0002817390778F0AC014E5F5F4F24173507BC
:100ED00048F04E0F5F1F5093010240930002819330
:100EE00091939FCFF0E0E0E09CCFCF93DF9300970A
:100EF000E9F0FC01329713821282A0910202B091B4
:100F00000302ED0130E020E01097A1F4208131814F
:100F1000820F931F20910002309101022817390798
:100F200009F061C0F0930102E0930002DF91CF91DC
:100F30000895EA01CE17DF07E8F54A815B819E013B
:100F400041155105B1F7E901FB83EA8349915991B4
:100F5000C40FD51FEC17FD0761F4808191810296C3
:100F6000840F951FE90199838883828193819B83F4
:100F70008A83F0E0E0E012968D919C9113970097A0
:100F8000B9F52D913C911197CD010296820F931FD7
:100F900020910002309101022817390739F6309765
:100FA00051F51092030210920202B0930102A09335
:100FB0000002BCCFD383C28340815181840F951F2F
:100FC000C817D90761F44E5F5F4F88819981480F38
:100FD000591F518340838A819B819383828321158A
:100FE000310509F0B0CFF0930302E09302029ECFE7
:100FF000FD01DC01C0CF13821282D7CFB0E0A0E0A8
:10100000E4E0F8E00C947C068C01009751F4CB01ED
:101010000E94D9068C01C801CDB7DEB7E0E10C947F
:101020009806FC01E60FF71F9C0122503109E217D8
:10103000F30708F49DC0D901CD91DC911197C61733
:10104000D70798F0C530D10530F3CE010497861745
:10105000970708F3C61BD70B2297C193D1936D93C3
:101060007C93CF010E947507D6CF5B01AC1ABD0AF5
:101070004C018C0E9D1EA0910202B0910302512CD6
:10108000412CF12CE12C109731F5809100029091C8
:1010900001028815990509F05CC04616570608F04C
:1010A00058C08091020190910301009741F48DB7DF
:1010B0009EB74091060150910701841B950BE817DC
:1010C000F90708F055C0F0930102E0930002F9011E
:1010D00071836083A0CF8D919C91119712966C9033
:1010E000129713967C901397A815B90559F56C01C2
:1010F00042E0C40ED11CCA14DB0420F1AC014A1931
:101100005B09DA011296159780F06282738251832F
:101110004083D9016D937C93E114F10471F0D70100
:101120001396FC93EE93129776CF22968C0F9D1F09
:10113000F90191838083F301EFCFF0930302E093F1
:10114000020269CF4816590608F42C017D01D3012B
:101150009ACFCB010E94D9067C01009749F0AE01DD
:10116000B8010E94BB08C8010E947507870153CFD0
:1011700010E000E050CFFB01DC0102C001900D92B5
:1011800041505040D8F70895FB01DC018D9101904A
:1011900080190110D9F3990B0895FB01DC0101902E
:1011A0000D920020E1F70895F894FFCF802500000C
:1011B0000402800000000000D20100012D011F0286
:1011C00090013C018201300A00310A006368616EBF
:1011D00067656D6F6465000D0A004F4B0044612028
:1011E0006E68616E2042617564205261746520747E
:0E11F000752041726475696E6F20323A2000DE
:107E0000112484B714BE81FFF0D085E080938100F7
:107E100082E08093C00088E18093C10086E0809377
:107E2000C20080E18093C4008EE0C9D0259A86E02C
:107E300020E33CEF91E0309385002093840096BBD3
:107E4000B09BFECF1D9AA8958150A9F7CC24DD24C4
:107E500088248394B5E0AB2EA1E19A2EF3E0BF2EE7
:107E6000A2D0813461F49FD0082FAFD0023811F036
:107E7000013811F484E001C083E08DD089C08234E0
:107E800011F484E103C0853419F485E0A6D080C0E4
:107E9000853579F488D0E82EFF2485D0082F10E0AE
:107EA000102F00270E291F29000F111F8ED06801E7
:107EB0006FC0863521F484E090D080E0DECF843638
:107EC00009F040C070D06FD0082F6DD080E0C81688
:107ED00080E7D80618F4F601B7BEE895C0E0D1E017
:107EE00062D089930C17E1F7F0E0CF16F0E7DF06D8
:107EF00018F0F601B7BEE89568D007B600FCFDCFD4
:107F0000A601A0E0B1E02C9130E011968C91119780
:107F100090E0982F8827822B932B1296FA010C0160
:107F200087BEE89511244E5F5F4FF1E0A038BF0790
:107F300051F7F601A7BEE89507B600FCFDCF97BE46
:107F4000E89526C08437B1F42ED02DD0F82E2BD052
:107F50003CD0F601EF2C8F010F5F1F4F84911BD097
:107F6000EA94F801C1F70894C11CD11CFA94CF0C13
:107F7000D11C0EC0853739F428D08EE10CD085E9AC
:107F80000AD08FE07ACF813511F488E018D01DD067
:107F900080E101D065CF982F8091C00085FFFCCF94
:107FA0009093C60008958091C00087FFFCCF809118
:107FB000C00084FD01C0A8958091C6000895E0E648
:107FC000F0E098E1908380830895EDDF803219F02E
:107FD00088E0F5DFFFCF84E1DECF1F93182FE3DFCA
:107FE0001150E9F7F2DF1F91089580E0E8DFEE27F6
:047FF000FF270994CA
:027FFE00040479
:00000001FF
