:020000040000FA
:100000000C946D000C9495000C9495000C94950044
:100010000C9495000C9495000C9495000C9495000C
:100020000C9495000C9495000C9495000C949500FC
:100030000C9495000C9495000C9495000C949500EC
:100040000C943E080C9495000C9495000C9495002B
:100050000C9495000C9495000C9495000C949500CC
:100060000C9488080C94950030313A33313A333689
:10007000004E6F76203134203230323500000000DF
:1000800000240027002A0000000000250028002B83
:1000900000000000002300260029000404040404DA
:1000A0000404040202020202020303030303030125
:1000B00002040810204080010204081020010204FC
:1000C00008102000000008000201000003040700DF
:1000D0000000000000000000A70911241FBECFEFA0
:1000E000D8E0DEBFCDBF22E0A6EAB1E001C01D929C
:1000F000AA39B207E1F711E0A0E0B1E0E8ECFDE1D8
:1001000002C005900D92A63AB107D9F710E0CDE6EE
:10011000D0E004C02197FE010E94B70DCC36D10774
:10012000C9F70E94C8090C94E20E0C9400000895CF
:100130000895833081F028F4813099F08230A9F05D
:1001400008958730A9F08830C9F08430B1F48091E7
:1001500080008F7D03C0809180008F778093800026
:10016000089584B58F7784BD089584B58F7DFBCFC6
:100170008091B0008F778093B00008958091B00097
:100180008F7DF9CFCF93DF93282F30E0F901ED5326
:10019000FF4F8491F901E155FF4FD491F901E556E4
:1001A000FF4FC491CC23A1F081110E949900EC2F44
:1001B000F0E0EE0FFF1FEF56FF4FA591B491EC91C9
:1001C000ED2381E090E009F480E0DF91CF91089584
:1001D00080E090E0FACF1F93CF93DF93282F30E099
:1001E000F901ED53FF4F8491F901E155FF4FD4918F
:1001F000F901E556FF4FC491CC23A9F0162F8111C8
:100200000E949900EC2FF0E0EE0FFF1FE957FF4F1F
:10021000A591B4918FB7F894EC91111108C0D095C5
:10022000DE23DC938FBFDF91CF911F910895DE2BEA
:10023000F8CFCF93DF9390E0FC01E155FF4F24917D
:1002400085569F4FFC0184918823D1F090E0880F60
:10025000991FFC01E358FF4FA591B491FC01E957A8
:10026000FF4FC591D491623071F49FB7F8943C91DF
:10027000822F809583238C93E8812E2B28839FBF28
:10028000DF91CF9108958FB7F894EC912E2B2C939A
:100290008FBFF6CF3FB7F894809101029091020290
:1002A000A0910302B091040226B5A89B05C02F3F80
:1002B00019F00196A11DB11D3FBFBA2FA92F982F8C
:1002C0008827BC01CD01620F711D811D911D42E087
:1002D000660F771F881F991F4A95D1F708958F924F
:1002E0009F92AF92BF92CF92DF92EF92FF924B011B
:1002F0005C010E944A016B017C010E944A016C1959
:100300007D098E099F09683E734081059105A8F318
:1003100021E0821A9108A108B10888EEC80E83E096
:10032000D81EE11CF11C81149104A104B10429F729
:10033000FF90EF90DF90CF90BF90AF909F908F9005
:100340000895AF92BF92CF92DF92EF92FF920F93F8
:100350001F93CF93DF936C017B018B01040F151F5B
:10036000EB015E01AE18BF08C017D10759F06991C3
:10037000D601ED91FC910190F081E02DC601099527
:10038000892B79F7C501DF91CF911F910F91FF90D4
:10039000EF90DF90CF90BF90AF9008950895FC014B
:1003A000908190539A3008F090E0818180532AE048
:1003B000929F800D112408952091C701260F3327A5
:1003C000331F21323105ECF420915302FC0190E0FF
:1003D00080E0243069F082E00895A091C701219166
:1003E000AC0149555E4FA40FB52FB11D2C9301965A
:1003F000861798F38091C701680F6093C70180E06A
:10040000089581E008951092530281E08093520292
:1004100010922D0261E082E10E94EB0061E083E135
:100420000E94EB00E9EBF0E080818E7F8083808189
:100430008D7F808388E48093B80085E48093BC003E
:10044000089510920C0210920B0210925A02109210
:100450007C020E94030287E990E090930802809357
:10046000070288E990E090930602809305020895C0
:10047000CF93DF9391E09093A6018823B9F0C091C8
:10048000B800D091BA008091BC008A7B8093BC00F8
:1004900060E082E10E94EB0060E083E10E94EB00FB
:1004A0000E940302D093BA00C093B800DF91CF91AD
:1004B00008958F929F92AF92BF92CF92DF92EF9268
:1004C000FF920F931F93CF93DF93D0917C02D13291
:1004D00008F0D7C0182FC0917B020E944A016B011F
:1004E0007C018091530281116BC082E080935302A2
:1004F000109352028FEF8093510210925002D093CA
:100500004F02ABE5B2E0EFE2F2E080E0D81391C039
:1005100010922E0280912E02CC0FC82BC0932E0277
:1005200080912D02813009F088C010922D020E9426
:100530004A016B017C0180912E028093BB00809167
:10054000550290915602A0915702B0915802892B02
:100550008A2B8B2BA1F00E944A0100915502109129
:10056000560220915702309158026C197D098E096C
:100570009F09061717072807390708F442C080911A
:10058000BC0083FDD8CF85EC8093BC000E944A015B
:100590006B017C0180915302823009F450C080913C
:1005A00051028F3F09F46FC080915102803209F4EB
:1005B0006CC080915102803309F469C084E026C088
:1005C0008091550290915602A0915702B091580225
:1005D000892B8A2B8B2B09F484CF0E944A018090AF
:1005E000550290905602A0905702B09058026C1994
:1005F0007D098E099F0986169706A806B90608F098
:1006000070CF809154020E94380285E010925A0205
:1006100010927C0210925902DF91CF911F910F919D
:10062000FF90EF90DF90CF90BF90AF909F908F9012
:1006300008959D9191938F5F69CF85EEA5CF8091AD
:10064000550290915602A0915702B0915802892B01
:100650008A2B8B2B09F49ECF0E944A0100915502F0
:100660001091560220915702309158026C197D0961
:100670008E099F09061717072807390708F08ACF40
:10068000C0CF81E0C3CF80E0C1CF82E0BFCF83E0A5
:10069000BDCF1F93CF93DF93EA01122FDC01119698
:1006A0008D919C91DC01ED91FC910280F381E02D14
:1006B0000995C817D90729F4812F0E94590291E0A2
:1006C000811190E0892FDF91CF911F910895CF93F1
:1006D000DF93EC018B818823A1F0888191E09093D6
:1006E000590280937B0210925A0210927C0281E0A0
:1006F0000E94590291E0811190E0892FDF91CF9102
:1007000008950E94210281E08B83CE010E9467033D
:10071000982F8111E2CFF1CF0895E0910C028091E2
:100720000B02E81730F4F0E0E35FFD4F808190E0CA
:1007300008958FEF9FEF089590910C0280910B0226
:100740002FEF3FEF981748F4E92FF0E0E35FFD4FFC
:10075000208130E09F5F90930C02C9010895809141
:100760000B0290910C02891B990B0895CF92DF9296
:10077000EF92FF920F931F93CF93DF937C01CB01F6
:100780008A0120915902222389F0EB016B01C40EEA
:10079000D51ECC15DD0569F06991D701ED91FC916D
:1007A0000190F081E02DC7010995F3CF642F0E94DD
:1007B000DC01C801DF91CF911F910F91FF90EF9065
:1007C000DF90CF900895CF93DF931F92CDB7DEB720
:1007D0006983209159022223F9F020917C02203272
:1007E00058F021E030E0FC013383228390E080E088
:1007F0000F90DF91CF91089580915A02E82FF0E099
:10080000E55AFD4F998190838F5F80935A028093C0
:100810007C0281E090E0ECCF61E0CE0101960E9485
:10082000DC01F7CFFC01248131E0309359022093A1
:100830007B0210925A0210927C028485682B8DE70D
:1008400092E00E94E30381E00C94590290E080E082
:1008500008958F929F92AF92BF920F931F93CF9361
:10086000DF93CDB7DEB7A1970FB6F894DEBF0FBE0A
:10087000CDBF19A2423008F44AE08E010F5D1F4F30
:10088000842E912CB12CA12CA50194010E94950DD0
:10089000E62FB901CA01EA3044F5E05DD801EE93D4
:1008A0008D01232B242B252B79F790E080E01097E6
:1008B00069F0FD0101900020E9F73197AF014A1B73
:1008C0005B0BBD0189E892E00E94A101A1960FB6E1
:1008D000F894DEBF0FBECDBFDF91CF911F910F9176
:1008E000BF90AF909F908F900895E95CD7CFFC01A7
:1008F00001900020E9F73197AF01481B590BBC016B
:1009000089E892E00C94A101682F70E090E080E00B
:100910004AE00C9429042F923F924F925F926F927B
:100920007F928F929F92AF92BF92CF92DF92EF927F
:10093000FF920F931F93CF93DF935C011B016A011A
:10094000F12CE12CD50114968D919C9186010E1904
:100950001F098017910708F48C01F501D0810E94CE
:100960004A012B013C0180915302811172C0C02FBA
:10097000013208F0C0E2F1E0F093530221E0C60139
:10098000801B910BE816F90608F420E02093520230
:100990008FEF80935102109250028C0F80934F0280
:1009A000A1E0A0932E0280912E02DD0FD82BD093D0
:1009B0002E0280912D02813009F090C010922D02FC
:1009C0000E944A012B013C0180912E028093BB00C2
:1009D0008091550290915602A0915702B091580211
:1009E000892B8A2B8B2BA1F00E944A012091550262
:1009F000309156024091570250915802641975097E
:100A000086099709261737074807590708F442C08F
:100A10008091BC0083FDD8CFB5ECB093BC000E94A0
:100A20004A012B013C0180915302813009F45AC0E4
:100A3000809150028C1710F4C0915002AFE2B2E0E6
:100A4000EDE0F2E080E08C1751F19D9191938F5F82
:100A5000FACF8091550290915602A0915702B09121
:100A60005802892B8A2B8B2B09F47DCF0E944A01D7
:100A700020915502309156024091570250915802F0
:100A80006419750986099709261737074807590712
:100A900008F069CF809154020E943802C0E01092A1
:100AA0000C02C0930B02C017110609F057C0410198
:100AB0008E0C9F1CE401CE018819990980179107BB
:100AC00098F5D50111968D919C91DC01ED91FC91E9
:100AD0000284F385E02D09958993EDCFE5EEE0934F
:100AE000BC009DCF8091550290915602A091570273
:100AF000B0915802892B8A2B8B2B09F494CF0E943A
:100B00004A0120915502309156024091570250916E
:100B10005802641975098609970926173707480787
:100B2000590708F080CFB6CFE00EF11EEC14FD049B
:100B300008F408CF81E0DF91CF911F910F91FF90D2
:100B4000EF90DF90CF90BF90AF909F908F907F906D
:100B50006F905F904F903F902F90089580E0EBCF83
:100B60000F931F93CF93DF93CDB7DEB728970FB6C0
:100B7000F894DEBF0FBECDBFDC018E010F5F1F4FAB
:100B800086E0F80111928A95E9F715963C91159740
:100B90002AE0832F622F0E94890D982F880F890FDA
:100BA000880F830F8A8314963C911497832F0E9499
:100BB000890D982F880F890F880F830F8B831396C9
:100BC0003C911397832F0E94890D982F880F890FCE
:100BD000880F830F8C8312963C911297832F0E946B
:100BE000890D982F880F890F880F830F8E83119698
:100BF0003C911197832F0E94890D982F880F890FA0
:100C0000880F830F8F833C91832F0E94890D982F2B
:100C1000880F890F880F830F888780910902909130
:100C20000A02FC01248135812830310580F02081C1
:100C300031E03093590220937B0210925A021092B5
:100C40007C0221E048E050E0B8010E944903289668
:100C50000FB6F894DEBF0FBECDBFDF91CF911F91CD
:100C60000F910895EF92FF920F931F93CF93DF930D
:100C700000D000D000D01F92CDB7DEB78C01198212
:100C8000E0900902F0900A02D70114968D919C9190
:100C90001597892BE9F08C9191E0909359028093FC
:100CA0007B0210925A0210927C0220E041E050E058
:100CB000BE016F5F7F4FC7010E944903882341F047
:100CC00047E050E0BE016F5F7F4FC7010E948B0479
:100CD000E981EF77FA81FB804D815E818F81282F3A
:100CE00030E094E0359527959A95E1F7922F990F8A
:100CF000990F291B220F280FD8012C93852F90E0E4
:100D000024E0959587952A95E1F7982F990F990FEB
:100D1000891B880F850F11968C931197642F70E0B3
:100D200034E0759567953A95E1F7862F880F880F1F
:100D3000681B660F640F12966C9312974F2D50E04C
:100D400064E0559547956A95E1F7842F880F880FE1
:100D5000481B440F4F0D13964C9313972F2F30E0E1
:100D600074E0359527957A95E1F7822F880F880FE3
:100D7000281B220F2F0F14962C9314978E2F90E080
:100D8000F4E095958795FA95E1F7982F990F990FCB
:100D9000891B880F8E0F15968C93C80127960FB666
:100DA000F894DEBF0FBECDBFDF91CF911F910F91A1
:100DB000FF90EF9008950F931F93CF938C01C62F50
:100DC0000E9412046C2F6460C8010E9412046C2FF0
:100DD0006B7FC8010E94120483EC90E00197F1F749
:100DE000CF911F910F9108950F931F93CF93DF938E
:100DF0008C01D62FC42F607F642B0E94DB0680E11C
:100E0000D89FB00111246C2BC801DF91CF911F91A5
:100E10000F910C94DB0641E00E94F40681E090E023
:100E2000089541E0682F89E892E00E94F40681E08D
:100E300090E0089540E0682F89E892E00C94F40671
:100E4000CF93DF93CDB7DEB728970FB6F894DEBF08
:100E50000FBECDBF98E0E6E0F1E0DE011196019013
:100E60000D929A95E1F790919102961708F46FEF21
:100E700070E0660F771F21E030E02C0F3D1F620FFE
:100E8000731FFB019081890F806828960FB6F89434
:100E9000DEBF0FBECDBFDF91CF910C941A0781E06A
:100EA0000E941A078BE39FE10197F1F7809192026C
:100EB000882321F060E080E00C942007089582E010
:100EC0000E941A078BE39FE10197F1F70895CF92F3
:100ED000DF92EF92FF927C0161E083E0E816F1047B
:100EE0000CF460E0C7010396880F8E0D0E94200766
:100EF000F701EE0FFF1FE251FE4FC080D1808AE064
:100F0000C816D1041CF480E30E9411070D2C000CBC
:100F1000EE08FF084AE0C701B601F7FE0BC08DE2FC
:100F20000E94110766277727CB016C197D098E096E
:100F30009F094AE0FF90EF90DF90CF900C94290436
:100F4000CF93DF9300D000D000D0CDB7DEB7CE0175
:100F500001960E94320660E080E00E9420078CE249
:100F600091E00E9477048C818A3018F480E30E941B
:100F700011078C810E9484048AE30E9411078D81ED
:100F80008A3018F480E30E9411078D810E94840446
:100F90008AE30E9411078E818A3018F480E30E9450
:100FA00011078E810E94840461E080E00E94200786
:100FB00083E391E00E9477048B818A3018F480E308
:100FC0000E9411078B810E9484048FE20E94110706
:100FD0008A818A3018F480E30E9411078A810E9476
:100FE00084048FE20E941107698170E06053784F9A
:100FF00090E080E04AE00E94290426960FB6F8941B
:10100000DEBF0FBECDBFDF91CF91089585ED8093F8
:10101000BC008091550290915602A0915702B09168
:1010200058020796A11DB11D23E0B695A795979587
:1010300087952A95D1F72091BC0024FD03C010921A
:101040005302089540915502509156026091570203
:1010500070915802452B462B472B69F30097A10549
:10106000B10541F02AE22A95F1F700C00197A109E4
:10107000B109E1CF809154020C9438021F920F9273
:101080000FB60F9211242F933F938F939F93AF939B
:10109000BF938091FD019091FE01A091FF01B0915D
:1010A00000023091FC0123E0230F2D3758F5019603
:1010B000A11DB11D2093FC018093FD019093FE01C1
:1010C000A093FF01B093000280910102909102026F
:1010D000A0910302B09104020196A11DB11D80935D
:1010E000010290930202A0930302B0930402BF9105
:1010F000AF919F918F913F912F910F900FBE0F90C5
:101100001F90189526E8230F0296A11DB11DD2CF7E
:101110001F920F920FB60F9211242F933F934F936C
:101120005F936F937F938F939F93AF93BF93EF934F
:10113000FF938091B900887F803609F44AC0F0F5AA
:10114000883209F4A7C018F5803109F49BC0B8F4BF
:10115000882309F4F9C0883009F494C0FF91EF9115
:10116000BF91AF919F918F917F916F915F914F91BF
:101170003F912F910F900FBE0F901F9018958831BF
:1011800009F488C0803251F78093510214C0803432
:1011900009F49DC040F48033B9F38833F9F68093A5
:1011A000510285ECB0C0803509F485C0883509F45A
:1011B00096C0883499F60E940608D0CF883909F481
:1011C0008CC038F5883729F050F4883611F0803714
:1011D00029F683E0809353021092E90157C08838C2
:1011E00009F47BC0803919F0803809F0B7CF8091BD
:1011F000E901803208F071C0E091E90181E08E0FD1
:101200008093E9018091BB00F0E0E753FE4F8083BB
:101210003DC0803B39F0E0F4803A09F479C0883A67
:1012200009F09CCF84E0809353021092C801109281
:10123000C701E0910702F091080209958091C7016A
:1012400081110FC081E08093C7011092A70109C0EE
:10125000803C09F4A6CF883C09F4A3CF883B09F071
:101260007DCFE091C80181E08E0F8093C801F0E04E
:10127000E955FE4F80818093BB009091C801809119
:10128000C70129C080912E028093BB0085EC80931A
:10129000BC0064CF9091500280914F02981758F58E
:1012A000E091500281E08E0F80935002F0E0E15D0A
:1012B000FD4F8081E9CFE091500281E08E0F809355
:1012C00050028091BB00F0E0E15DFD4F8083909182
:1012D000500280914F029817C8F285E8D8CFE0916C
:1012E000500281E08E0F809350028091BB00F0E0AD
:1012F000E15DFD4F80838091520281115CCF81E0DE
:1013000080932D0284EA8093BC001092530226CF72
:1013100085EC8093BC00109253028091E9018032E9
:1013200030F4E091E901F0E0E753FE4F1082609164
:10133000E90170E0E0910502F091060289EC91E08C
:1013400009951092E9010ACF1092510234CFEDE7CE
:10135000F2E01382128288EE93E0A0E0B0E0848392
:101360009583A683B78382E191E091838083E9E846
:10137000F2E01382128284E291E0918380831186ED
:1013800087E2848380E1828782E0838714860895E0
:10139000CF93DF93CDB7DEB762970FB6F894DEBF79
:1013A0000FBECDBF789484B5826084BD84B5816062
:1013B00084BD85B5826085BD85B5816085BD809120
:1013C0006E00816080936E00109281008091810098
:1013D0008260809381008091810081608093810090
:1013E000809180008160809380008091B100846052
:1013F0008093B1008091B00081608093B0008091B3
:101400007A00846080937A0080917A008260809371
:101410007A0080917A00816080937A0080917A00CE
:10142000806880937A001092C10061E084E00E949D
:10143000190162E085E00E94190162E086E00E94E5
:10144000190162E082E00E94190162E083E00E94DB
:1014500019010E94210210928E0280919402823022
:1014600018F098E090938E028093910262E370E00E
:1014700080E090E00E946F016091950289E892E01F
:101480000E94120468EE73E080E090E00E946F0119
:1014900060E389E892E00E94DB060BE416E4C801F1
:1014A0000197F1F760E389E892E00E94DB06C8014A
:1014B0000197F1F760E389E892E00E94DB0683E59B
:1014C00092E00197F1F760E289E892E00E94DB0682
:1014D00080918E0280620E941A0784E080938F02BE
:1014E0008CE00E941A070E944F0782E080939002CE
:1014F00086E00E941A070E945F0788E080939502A9
:1015000060E089E892E00E941204809109029091C3
:101510000A02009711F00E94590E86E090E00E94A6
:10152000BD0D8C0188E6F80180838DE792E09283FF
:101530008183138280E290E09583848310930A0272
:10154000009309020E94210281E0F8018383C8010F
:101550000E946703811104C08AE391E00E9477042E
:101560001A8A8091090290910A02FC012481358136
:10157000232B91F0208131E03093590220937B029C
:1015800010925A0210927C0221E041E050E0BE012C
:101590006E5E7F4F0E94490341E050E0BE016F5FE5
:1015A0007F4F8091090290910A020E948B048981E9
:1015B00090E0880F892F881F990B892B09F461C04F
:1015C0000E944F0789E491E00E9477044BE050E0CD
:1015D00061E770E0CE0101960E94800DCE010A966F
:1015E0000E94CF018C87E981E154E33120F50E2E72
:1015F000000CFF0BE250F54F0C94B70DF40B1B0BD6
:101600001B0B080C1B0BF20B1B0B1B0B1B0B110BEF
:101610001B0B1B0BFB0B060C040C1B0B1B0B1B0BE4
:10162000020C8A81813609F4D9C08B818E3609F487
:10163000D7C087E08D87CE0105960E94CF018E87A7
:1016400048E050E068E670E0CE0101960E94800D0F
:10165000CE0101960E94CF018F87CE0104960E9491
:10166000CF01888BCE0107960E94CF01898BCE01D6
:101670000C960E94B00568EE73E080E090E00E9456
:101680006F010E944F075BE3452E512C60ED662EE3
:1016900067E0762E7CE0E72EF12CEFE1CE2ED12C08
:1016A000F3E3AF2EF8E0BF2EA7E18A2E912C01E0E4
:1016B00010E040E0242E40E0342E8091FA01909119
:1016C000FB01009709F0A6C080918F028D7F809367
:1016D0008F0288600E941A070E94A007CE0101961F
:1016E0000E9432062C818091EE019091EF01281723
:1016F0001906C9F52D818091F0019091F10128170B
:10170000190689F52E818091F2019091F301281735
:10171000190649F52B818091F4019091F501281764
:10172000190609F52A818091F6019091F701281791
:101730001906C9F4898190E08053984F2091F801EF
:101740003091F9012817390771F461E084E00E94B3
:10175000EB0060ED77E080E090E00E946F0160E0D8
:1017600084E00E94EB0085E00E94C200892B79F59D
:101770008091FA019091FB0101969093FB01809377
:10178000FA0121E02093ED01039724F01092FB0170
:101790001092FA010E944F070E945F0762E370E017
:1017A00080E090E00E946F018091FA019091FB012E
:1017B000009709F045C187E591E00E94770464EF46
:1017C00071E080E090E00E946F010E944F072114B9
:1017D000310409F472CF0E9400006BCF81E02ACF60
:1017E00086E028CF82E026CF8B81823711F088E017
:1017F00021CF84E01FCF8B81823711F085E01ACF93
:1018000083E018CF89E016CF8AE014CF8BE012CFA7
:101810008CE010CF0197029708F0A5CF8091ED01E1
:101820008823B9F10E94A0071092ED01CE01019624
:101830000E9432068C8190E09093EF018093EE013C
:101840008D8190E09093F1018093F0018E8190E082
:101850009093F3018093F2018B8190E09093F501D6
:101860008093F4018A8190E09093F7018093F601D0
:10187000898190E08053984F9093F9018093F8010B
:1018800080918F02982F926090938F028A600E94BD
:101890001A0786E00E94C200892B21F586E00E948B
:1018A000C200892BD9F38091EB019091EC01FC01EE
:1018B000EE0FFF1FE251FE4F208131812F5F3F4F1E
:1018C00031832083833091050CF053C08130910522
:1018D0000CF069C0009709F45DC00E94670781E0C1
:1018E0008093EA0182E00E94C200892B21F582E008
:1018F0000E94C200892BD9F38091EB019091EC01F9
:10190000FC01EE0FFF1FE251FE4F2081318121507B
:10191000310931832083833091050CF05DC0813023
:1019200091050CF071C0009709F467C00E94670729
:1019300081E08093EA0183E00E94C200892B09F0D4
:1019400012CF83E00E94C200892BD9F38091EA0173
:10195000882309F48DC08091EB019091EC010196F0
:10196000863091050CF067C09093EC018093EB01F9
:10197000FACE8430910539F1ECF08530910509F00B
:10198000ACCF243338400CF4A8CF7092F9016092A8
:10199000F801A3CF283131050CF49FCF1092EF014D
:1019A0001092EE019ACF2C3331050CF496CF1182B0
:1019B000108293CF203231050CF48FCF1093F501B4
:1019C0000093F4018ACF2D3031050CF486CF1093AB
:1019D000F7010093F60181CF8430910519F1CCF025
:1019E0008530910509F0A2CF203D37400CF09ECF05
:1019F000B092F901A092F80199CF37FF97CF90925A
:101A0000EF018092EE0192CF37FF90CF518240825A
:101A10008DCF121613060CF489CFD092F501C09227
:101A2000F40184CF121613060CF480CFF092F70164
:101A3000E092F6017BCF1092EC011092EB0193CE75
:101A4000019759F486E691E00E94770461E080E016
:101A50000E9420078EE691E0B0CE8BE791E00E94D5
:101A6000770461E080E00E94200782E891E0A5CE43
:101A700080918F028D7F80938F0288600E941A0769
:101A80001092FB011092FA010E944F070E945F071B
:101A900080E991E00E94770461E080E00E942007E5
:101AA00089E991E00E94770464EF71E080E090E0C2
:101AB0000E946F018091FA019091FB01039709F058
:101AC00052CE2091F2013091F0014091EE015091FF
:101AD000F4016091F6018091F8019091F901803D47
:101AE00077E0970710F0805D974089836A835B8376
:101AF0004C833D832E83CE0101960E94B00533CEE8
:101B0000FB01DC0102C005900D9241505040D8F716
:101B10000895991B79E004C0991F961708F0961B49
:101B2000881F7A95C9F780950895A1E21A2EAA1BFD
:101B3000BB1BFD010DC0AA1FBB1FEE1FFF1FA2177D
:101B4000B307E407F50720F0A21BB30BE40BF50B7A
:101B5000661F771F881F991F1A9469F76095709503
:101B6000809590959B01AC01BD01CF010895EE0FCA
:101B7000FF1F0590F491E02D09940F931F93CF93CD
:101B8000DF938230910510F482E090E0E0919802BA
:101B9000F091990230E020E0B0E0A0E0309799F4B5
:101BA0002115310509F44AC0281B390B24303105B1
:101BB000D8F58A819B816115710589F1FB019383B9
:101BC0008283FE0111C04081518102811381481737
:101BD0005907E0F04817590799F4109761F01296E9
:101BE0000C93129713961C933296CF01DF91CF91ED
:101BF0001F910F9108950093980210939902F4CFCA
:101C00002115310551F04217530738F0A901DB01C6
:101C10009A01BD01DF01F801C1CFEF01F9CF909327
:101C2000990280939802CDCFFE01E20FF31F8193BA
:101C300091932250310939832883D7CF209196027E
:101C400030919702232B41F420910201309103013E
:101C50003093970220939602209100013091010168
:101C60002115310541F42DB73EB740910401509143
:101C70000501241B350BE0919602F0919702E217C3
:101C8000F307A0F42E1B3F0B2817390778F0AC019F
:101C90004E5F5F4F2417350748F04E0F5F1F50937C
:101CA000970240939602819391939FCFF0E0E0E0FA
:101CB0009CCFCF93DF930097E9F0FC01329713821A
:101CC0001282A0919802B0919902ED0130E020E0DB
:101CD0001097A1F420813181820F931F20919602E9
:101CE000309197022817390709F061C0F0939702E5
:101CF000E0939602DF91CF910895EA01CE17DF07B6
:101D0000E8F54A815B819E0141155105B1F7E90172
:101D1000FB83EA8349915991C40FD51FEC17FD0746
:101D200061F4808191810296840F951FE901998366
:101D30008883828193819B838A83F0E0E0E012961E
:101D40008D919C9113970097B9F52D913C91119726
:101D5000CD010296820F931F209196023091970237
:101D60002817390739F6309751F5109299021092D9
:101D70009802B0939702A0939602BCCFD383C283FC
:101D800040815181840F951FC817D90761F44E5FB8
:101D90005F4F88819981480F591F518340838A8101
:101DA0009B81938382832115310509F0B0CFF09395
:101DB0009902E09398029ECFFD01DC01C0CF13820F
:101DC0001282D7CFF894FFCF00009A028000000063
:101DD00040001400540000000000E303B603260492
:101DE0008C03AF039C038D03000000000B07A101CF
:101DF0002604CE0154696D653A2000446174653A49
:101E00002000525443206E6F7420666F756E6421FB
:101E1000005254432061646A7573742E2E2E004361
:101E2000686520646F2078656D2067696F0043687E
:101E30006520646F20006361692062616F207468AF
:101E400075630043686520646F006361692074688E
:101E50006F69206769616E00436F6D706C657465B2
:0E1E600000616C61726D2073657420757000F6
:107E0000112484B714BE81FFF0D085E080938100F7
:107E100082E08093C00088E18093C10086E0809377
:107E2000C20080E18093C4008EE0C9D0259A86E02C
:107E300020E33CEF91E0309385002093840096BBD3
:107E4000B09BFECF1D9AA8958150A9F7CC24DD24C4
:107E500088248394B5E0AB2EA1E19A2EF3E0BF2EE7
:107E6000A2D0813461F49FD0082FAFD0023811F036
:107E7000013811F484E001C083E08DD089C08234E0
:107E800011F484E103C0853419F485E0A6D080C0E4
:107E9000853579F488D0E82EFF2485D0082F10E0AE
:107EA000102F00270E291F29000F111F8ED06801E7
:107EB0006FC0863521F484E090D080E0DECF843638
:107EC00009F040C070D06FD0082F6DD080E0C81688
:107ED00080E7D80618F4F601B7BEE895C0E0D1E017
:107EE00062D089930C17E1F7F0E0CF16F0E7DF06D8
:107EF00018F0F601B7BEE89568D007B600FCFDCFD4
:107F0000A601A0E0B1E02C9130E011968C91119780
:107F100090E0982F8827822B932B1296FA010C0160
:107F200087BEE89511244E5F5F4FF1E0A038BF0790
:107F300051F7F601A7BEE89507B600FCFDCF97BE46
:107F4000E89526C08437B1F42ED02DD0F82E2BD052
:107F50003CD0F601EF2C8F010F5F1F4F84911BD097
:107F6000EA94F801C1F70894C11CD11CFA94CF0C13
:107F7000D11C0EC0853739F428D08EE10CD085E9AC
:107F80000AD08FE07ACF813511F488E018D01DD067
:107F900080E101D065CF982F8091C00085FFFCCF94
:107FA0009093C60008958091C00087FFFCCF809118
:107FB000C00084FD01C0A8958091C6000895E0E648
:107FC000F0E098E1908380830895EDDF803219F02E
:107FD00088E0F5DFFFCF84E1DECF1F93182FE3DFCA
:107FE0001150E9F7F2DF1F91089580E0E8DFEE27F6
:047FF000FF270994CA
:027FFE00040479
:00000001FF
