:020000040000FA
:100000000C9462000C948A000C948A000C948A0070
:100010000C948A000C948A000C948A000C948A0038
:100020000C948A000C948A000C948A000C948A0028
:100030000C948A000C948A000C948A000C948A0018
:100040000C940F030C948A000C947F030C945903B6
:100050000C948A000C948A000C948A000C948A00F8
:100060000C948A000C948A000000000023002600F3
:10007000290000000008000201000003040700003E
:1000800000000000000000000000250028002B00F8
:1000900000000000240027002A00040404040404D3
:1000A0000404020202020202030303030303010227
:1000B00004081020408001020408102001020408F6
:1000C0001020020611241FBECFEFD8E0DEBFCDBF47
:1000D00021E0A0E3B1E001C01D92AF3DB207E1F71E
:1000E00011E0A0E0B1E0EEE2F1E102C005900D9276
:1000F000A033B107D9F710E0C2E6D0E004C02197E1
:10010000FE010E949406C136D107C9F70E94B103CF
:100110000C9495080C940000CF92DF92EF92FF921E
:100120006B017C0160E079E08DE390E0A70196012E
:100130000E9472062150310941095109569547958F
:1001400037952795E0914E01F0914F0182E0808331
:10015000211580E13807A8F0E0914E01F0914F01A0
:10016000108260E874E88EE190E0A70196010E9499
:100170007206215031094109510956954795379525
:100180002795E0914A01F0914B013083E0914C01B9
:10019000F0914D01208310925601E0915201F091AF
:1001A000530186E08083E0915001F09151018081FC
:1001B00080618083E0915001F091510180818860DD
:1001C0008083E0915001F0915101808180688083AB
:1001D000E0915001F091510180818F7D8083FF90EB
:1001E000EF90DF90CF90089590E0FC01E255FF4F33
:1001F000249186569F4FFC018491882399F090E0CA
:10020000880F991FFC01E057FF4FA591B491FC01A5
:10021000EA57FF4F859194918FB7F894EC91E22BB8
:10022000EC938FBF0895833081F028F4813099F0EA
:100230008230A9F008958730A9F08830C9F0843061
:10024000B1F4809180008F7D03C0809180008F7712
:1002500080938000089584B58F7784BD089584B518
:100260008F7DFBCF8091B0008F778093B000089591
:100270008091B0008F7DF9CF1F93CF93DF93282F0C
:1002800030E0F901EE58FF4F8491F901E255FF4F3C
:10029000D491F901E656FF4FC491CC23A9F0162F53
:1002A00081110E941301EC2FF0E0EE0FFF1FEA57BF
:1002B000FF4FA591B4918FB7F894EC91111108C03C
:1002C000D095DE23DC938FBFDF91CF911F910895EE
:1002D000DE2BF8CF3FB7F89480913A0190913B0123
:1002E000A0913C01B0913D0126B5A89B05C02F3FD0
:1002F00019F00196A11DB11D3FBFBA2FA92F982F4C
:100300008827BC01CD01620F711D811D911D42E046
:10031000660F771F881F991F4A95D1F708952FB749
:10032000F894609136017091370180913801909175
:1003300039012FBF0895AF92BF92CF92DF92EF9213
:10034000FF920F931F93CF93DF936C017B018B017F
:10035000040F151FEB015E01AE18BF08C017D107CF
:1003600059F06991D601ED91FC910190F081E02D59
:10037000C6010995892B79F7C501DF91CF911F91AE
:100380000F91FF90EF90DF90CF90BF90AF900895C6
:10039000FC01538D448D252F30E0842F90E0821B8B
:1003A000930B541710F0CF96089501970895FC0110
:1003B000918D828D981761F0A28DAE0FBF2FB11D68
:1003C0005D968C91928D9F5F9F73928F90E00895C0
:1003D0008FEF9FEF08950F931F930E948F016093FB
:1003E00046017093470180934801909349018EE341
:1003F00091E00E94D70197FF1DC00E948F010091DC
:100400004601109147012091480130914901601B3C
:10041000710B820B930B00914201109143012091CB
:100420004401309145016017710782079307F8F284
:100430008FEF9FEF1F910F910895FC01918D828D99
:10044000981731F0828DE80FF11D858D90E00895A9
:100450008FEF9FEF0895FC01918D228D892F90E001
:10046000805C9F4F821B91098F73992708958EE3BB
:1004700091E00E942B0221E0892B09F420E0822FD9
:10048000089580E090E0892B29F00E9437028111C5
:100490000C9400000895FC01A48DA80FB92FB11D84
:1004A000A35ABF4F2C91848D90E001968F739927AA
:1004B000848FA689B7892C93A089B1898C91837088
:1004C00080648C93938D848D981306C00288F38981
:1004D000E02D80818F7D80830895EF92FF920F93AE
:1004E0001F93CF93DF93EC0181E0888F9B8D8C8DE0
:1004F00098131AC0E889F989808185FF15C09FB7D4
:10050000F894EE89FF896083E889F9898081837096
:10051000806480839FBF81E090E0DF91CF911F9145
:100520000F91FF90EF900895F62E0B8D10E00F5F66
:100530001F4F0F731127E02E8C8D8E110CC00FB63C
:1005400007FCFACFE889F989808185FFF5CFCE01D4
:100550000E944B02F1CFEB8DEC0FFD2FF11DE35A02
:10056000FF4FF0829FB7F8940B8FEA89FB89808157
:100570008062CFCFCF93DF93EC01888D8823B9F0D1
:10058000AA89BB89E889F9898C9185FD03C080819E
:1005900086FD0DC00FB607FCF7CF8C9185FFF2CF1B
:1005A000808185FFEDCFCE010E944B02E9CFDF9124
:1005B000CF910895FC0101900020E9F73197AF0138
:1005C000481B590BBC018EE391E00C949B010F93E7
:1005D0001F93CF93DF93EC0188819981009759F0A5
:1005E0002A813B812617370730F081E0DF91CF91D8
:1005F0001F910F9108958B016F5F7F4F0E94BF077E
:10060000009759F0998388831B830A832C813D814D
:10061000232B59F7FC011082E8CF80E0E7CF1F922F
:100620000F920FB60F9211242F933F938F939F93A6
:10063000AF93BF938091360190913701A09138011B
:10064000B09139013091350123E0230F2D3758F552
:100650000196A11DB11D2093350180933601909321
:100660003701A0933801B093390180913A019091FC
:100670003B01A0913C01B0913D010196A11DB11D2E
:1006800080933A0190933B01A0933C01B0933D01CC
:10069000BF91AF919F918F913F912F910F900FBE7E
:1006A0000F901F90189526E8230F0296A11DB11DEB
:1006B000D2CF1F920F920FB60F9211242F933F9318
:1006C0004F935F936F937F938F939F93AF93BF935A
:1006D000EF93FF938EE391E00E944B02FF91EF9125
:1006E000BF91AF919F918F917F916F915F914F914A
:1006F0003F912F910F900FBE0F901F9018951F9252
:100700000F920FB60F9211242F938F939F93EF9315
:10071000FF93E0914E01F0914F018081E0915401EF
:10072000F091550182FD1BC09081809157018F5F30
:100730008F7320915801821741F0E0915701F0E04A
:10074000E25CFE4F958F80935701FF91EF919F914F
:100750008F912F910F900FBE0F901F901895808151
:10076000F4CFCF93DF93CDB7DEB7A7970FB6F8944A
:10077000DEBF0FBECDBF789484B5826084BD84B5E2
:10078000816084BD85B5826085BD85B5816085BD8C
:1007900080916E00816080936E0010928100809144
:1007A00081008260809381008091810081608093CC
:1007B0008100809180008160809380008091B100F1
:1007C00084608093B1008091B00081608093B0001C
:1007D00080917A00846080937A0080917A008260B0
:1007E00080937A0080917A00816080937A00809172
:1007F0007A00806880937A001092C10060E875E208
:1008000080E090E00E948C0085E00E94F40086E089
:100810000E94F40087E00E94F40061E086E00E94FC
:100820003C0160E087E00E943C0160E085E00E94BE
:100830003C012AE0422E512C612C712C30E8232EF1
:1008400035E2332E8EE391E00E942B021816190632
:100850000CF071C01BA21AA21DA21CA21FA21EA2F4
:1008600070E060E0CE0182960E94E7022AA13BA1DF
:1008700081112EC02115310519F0C9010E943607DA
:100880001BA21AA21FA21EA21DA21CA20E94EB0163
:100890000EA11FA197FD24C08A30910509F189831B
:1008A0001A820F5F1F4FB801CE0182960E94E702A5
:1008B000882361F32AA13BA18EA19FA1BE016F5F96
:1008C0007F4F820F931F0E948E081FA30EA3DECFBF
:1008D0001FA21EA260E271E0C9010E948E08D6CF5D
:1008E000CAA0DBA0C114D10429F0760101151105BD
:1008F00009F076C08EA19FA1892BB9F00AA11BA196
:100900006AE171E0C8010E948508892B09F09EC048
:1009100081E0809334010E948F01609330017093D5
:10092000310180933201909333018AA19BA10097FA
:1009300011F00E94360780913401882309F45DC1CB
:100940000E948F01009130011091310120913201FC
:1009500030913301601B710B820B930B6233710575
:100960008105910578F1E7E7F0E08491E3EBF0E0B1
:100970000491EFE9F0E0149170E060E0112399F048
:1009800081110E941301E12FF0E0EE0FFF1FE859E3
:10099000FF4FA591B4918C91082391E080E009F478
:1009A00090E0692F782FF1E06F2785E00E943C01ED
:1009B0000E948F0160933001709331018093320166
:1009C0009093330180E090E0892B09F43BCF0E94A3
:1009D0003702882309F436CF0E94000033CF750117
:1009E00057012FEFA21AB20AF7018081082E000CDE
:1009F000990B0E942F06892B91F7015011090C0DBC
:100A00001D1DF8018081082E000C990B0E942F06F5
:100A1000892B31F00E151F0518F001501109F1CF87
:100A2000A8014F5F5F4F4E195F095FA34EA3CE141D
:100A3000DF0420F4B701C6010E947C08EAA1FBA1F3
:100A40008EA19FA1E80FF91F108254CF6CE171E0D5
:100A5000C8010E948508892B09F04CC0109234010E
:100A6000C0900001D09001010D2C000CEE08FF0891
:100A7000F7FE2AC06DE28EE391E00E946D0222270C
:100A80003327A9012C193D094E095F0919A28E01CE
:100A90000F5D1F4FCA01B901A30192010E947206A6
:100AA000605DF80162938F01211531054105510503
:100AB00089F70115110519F0C8010E94DA028EE1CB
:100AC00091E00E94DA0231CFA701960119A28E01AE
:100AD0000F5D1F4FCA01B901A30192010E94720666
:100AE000605DF80162938F012115310541055105C3
:100AF00089F7DFCF61E271E0C8010E948508892B88
:100B000009F013CF80910001909101018038954246
:100B100009F069C080E092EC90930101809300019C
:100B200061E087E00E943C0160E086E00E943C01B9
:100B30008CE291E00E94DA028EE191E00E94DA02FA
:100B40000E946A014B015C0194E6C92ED12CE12C74
:100B5000F12C0E946A01681979098A099B09683E8B
:100B6000734081059105A8F391E0C91AD108E10805
:100B7000F108E8EE8E0EE3E09E1EA11CB11CC1142C
:100B8000D104E104F10429F78EE391E00E94BA0256
:100B9000E0915001F091510180818F7E8083E0913E
:100BA0005001F09151018081877F8083E091500155
:100BB000F091510180818F778083E0915001F09115
:100BC000510180818F7D80838091580180935701EE
:100BD0006091000170910101072E000C880B990BA8
:100BE0000E948C00A2CE309201012092000160E0B0
:100BF00087E00E943C0161E098CF60E085E00E94C0
:100C00003C01E0CEEEE3F1E01382128288EE93E045
:100C1000A0E0B0E084839583A683B7838CE091E065
:100C20009183808385EC90E09587848784EC90E0C5
:100C30009787868780EC90E0918B808B81EC90E0A9
:100C4000938B828B82EC90E0958B848B86EC90E08A
:100C5000978B868B118E128E138E148E08959111A0
:100C60000C943806803219F089508550C8F70895E1
:100C70009927882708952F923F924F925F926F9203
:100C80007F928F929F92AF92BF92CF92DF92EF921C
:100C9000FF920F931F93CF93DF93CDB7DEB7CA1B9D
:100CA000DB0B0FB6F894DEBF0FBECDBF09942A88C8
:100CB000398848885F846E847D848C849B84AA8470
:100CC000B984C884DF80EE80FD800C811B81AA81FD
:100CD000B981CE0FD11D0FB6F894DEBF0FBECDBFC8
:100CE000ED010895A1E21A2EAA1BBB1BFD010DC048
:100CF000AA1FBB1FEE1FFF1FA217B307E407F507CC
:100D000020F0A21BB30BE40BF50B661F771F881FA7
:100D1000991F1A9469F760957095809590959B013D
:100D2000AC01BD01CF010895EE0FFF1F0590F491B6
:100D3000E02D09940F931F93CF93DF938230910599
:100D400010F482E090E0E091DD01F091DE0130E00E
:100D500020E0B0E0A0E0309799F42115310509F4C6
:100D60004AC0281B390B24303105D8F58A819B8174
:100D70006115710589F1FB0193838283FE0111C026
:100D8000408151810281138148175907E0F04817CB
:100D9000590799F4109761F012960C9312971396D5
:100DA0001C933296CF01DF91CF911F910F9108953F
:100DB0000093DD011093DE01F4CF2115310551F0D0
:100DC0004217530738F0A901DB019A01BD01DF0189
:100DD000F801C1CFEF01F9CF9093DE018093DD01DF
:100DE000CDCFFE01E20FF31F819391932250310981
:100DF00039832883D7CF2091DB013091DC01232B6D
:100E000041F420910401309105013093DC012093DD
:100E1000DB0120910201309103012115310541F4DC
:100E20002DB73EB74091060150910701241B350BA9
:100E3000E091DB01F091DC01E217F307A0F42E1B37
:100E40003F0B2817390778F0AC014E5F5F4F24172E
:100E5000350748F04E0F5F1F5093DC014093DB01D4
:100E6000819391939FCFF0E0E0E09CCFCF93DF930D
:100E70000097E9F0FC01329713821282A091DD0104
:100E8000B091DE01ED0130E020E01097A1F4208167
:100E90003181820F931F2091DB013091DC012817F3
:100EA000390709F061C0F093DC01E093DB01DF91C9
:100EB000CF910895EA01CE17DF07E8F54A815B81FB
:100EC0009E0141155105B1F7E901FB83EA83499180
:100ED0005991C40FD51FEC17FD0761F480819181F2
:100EE0000296840F951FE9019983888382819381FB
:100EF0009B838A83F0E0E0E012968D919C9113979A
:100F00000097B9F52D913C911197CD010296820F72
:100F1000931F2091DB013091DC012817390739F646
:100F2000309751F51092DE011092DD01B093DC0193
:100F3000A093DB01BCCFD383C28340815181840F56
:100F4000951FC817D90761F44E5F5F4F888199815B
:100F5000480F591F518340838A819B8193838283E9
:100F60002115310509F0B0CFF093DE01E093DD01EA
:100F70009ECFFD01DC01C0CF13821282D7CFB0E03B
:100F8000A0E0E5ECF7E00C943D068C01009751F4ED
:100F9000CB010E949A068C01C801CDB7DEB7E0E113
:100FA0000C945906FC01E60FF71F9C0122503109F1
:100FB000E217F30708F49DC0D901CD91DC91119798
:100FC000C617D70798F0C530D10530F3CE01049786
:100FD0008617970708F3C61BD70B2297C193D193A7
:100FE0006D937C93CF010E943607D6CF5B01AC1A7C
:100FF000BD0A4C018C0E9D1EA091DD01B091DE0159
:10100000512C412CF12CE12C109731F58091DB0112
:101010009091DC018815990509F05CC046165706C9
:1010200008F058C08091020190910301009741F4AB
:101030008DB79EB74091060150910701841B950B17
:10104000E817F90708F055C0F093DC01E093DB01E5
:10105000F90171836083A0CF8D919C9111971296B5
:101060006C90129713967C901397A815B90559F5B3
:101070006C0142E0C40ED11CCA14DB0420F1AC01A7
:101080004A195B09DA011296159780F06282738221
:1010900051834083D9016D937C93E114F10471F085
:1010A000D7011396FC93EE93129776CF22968C0F6E
:1010B0009D1FF90191838083F301EFCFF093DE014F
:1010C000E093DD0169CF4816590608F42C017D0133
:1010D000D3019ACFCB010E949A067C01009749F078
:1010E000AE01B8010E947C08C8010E943607870142
:1010F00053CF10E000E050CFFB01DC0102C00190B3
:101100000D9241505040D8F70895FB01DC018D91BC
:10111000019080190110D9F3990B0895FB01DC01AE
:1011200001900D920020E1F70895F894FFCF8025FB
:101130000000DF018000000000006D029B01C8017B
:10114000BA022B02D7011D02310030000D0A0063E4
:0E11500068616E67656D6F6465004F4B00004F
:107E0000112484B714BE81FFF0D085E080938100F7
:107E100082E08093C00088E18093C10086E0809377
:107E2000C20080E18093C4008EE0C9D0259A86E02C
:107E300020E33CEF91E0309385002093840096BBD3
:107E4000B09BFECF1D9AA8958150A9F7CC24DD24C4
:107E500088248394B5E0AB2EA1E19A2EF3E0BF2EE7
:107E6000A2D0813461F49FD0082FAFD0023811F036
:107E7000013811F484E001C083E08DD089C08234E0
:107E800011F484E103C0853419F485E0A6D080C0E4
:107E9000853579F488D0E82EFF2485D0082F10E0AE
:107EA000102F00270E291F29000F111F8ED06801E7
:107EB0006FC0863521F484E090D080E0DECF843638
:107EC00009F040C070D06FD0082F6DD080E0C81688
:107ED00080E7D80618F4F601B7BEE895C0E0D1E017
:107EE00062D089930C17E1F7F0E0CF16F0E7DF06D8
:107EF00018F0F601B7BEE89568D007B600FCFDCFD4
:107F0000A601A0E0B1E02C9130E011968C91119780
:107F100090E0982F8827822B932B1296FA010C0160
:107F200087BEE89511244E5F5F4FF1E0A038BF0790
:107F300051F7F601A7BEE89507B600FCFDCF97BE46
:107F4000E89526C08437B1F42ED02DD0F82E2BD052
:107F50003CD0F601EF2C8F010F5F1F4F84911BD097
:107F6000EA94F801C1F70894C11CD11CFA94CF0C13
:107F7000D11C0EC0853739F428D08EE10CD085E9AC
:107F80000AD08FE07ACF813511F488E018D01DD067
:107F900080E101D065CF982F8091C00085FFFCCF94
:107FA0009093C60008958091C00087FFFCCF809118
:107FB000C00084FD01C0A8958091C6000895E0E648
:107FC000F0E098E1908380830895EDDF803219F02E
:107FD00088E0F5DFFFCF84E1DECF1F93182FE3DFCA
:107FE0001150E9F7F2DF1F91089580E0E8DFEE27F6
:047FF000FF270994CA
:027FFE00040479
:00000001FF
